{
  "_format": "hh-sol-artifact-1",
  "contractName": "HealthcareRegistry",
  "sourceName": "contracts/HealthcareRegistry.sol",
  "abi": [
    {
      "inputs": [],
      "stateMutability": "nonpayable",
      "type": "constructor"
    },
    {
      "anonymous": false,
      "inputs": [
        {
          "indexed": true,
          "internalType": "address",
          "name": "doctor",
          "type": "address"
        },
        {
          "indexed": true,
          "internalType": "uint256",
          "name": "patientId",
          "type": "uint256"
        }
      ],
      "name": "AccessGranted",
      "type": "event"
    },
    {
      "anonymous": false,
      "inputs": [
        {
          "indexed": true,
          "internalType": "address",
          "name": "doctor",
          "type": "address"
        },
        {
          "indexed": true,
          "internalType": "uint256",
          "name": "patientId",
          "type": "uint256"
        }
      ],
      "name": "AccessRevoked",
      "type": "event"
    },
    {
      "anonymous": false,
      "inputs": [
        {
          "indexed": true,
          "internalType": "address",
          "name": "emergencyProvider",
          "type": "address"
        },
        {
          "indexed": true,
          "internalType": "uint256",
          "name": "patientId",
          "type": "uint256"
        }
      ],
      "name": "EmergencyAccessGranted",
      "type": "event"
    },
    {
      "anonymous": false,
      "inputs": [
        {
          "indexed": true,
          "internalType": "uint256",
          "name": "patientId",
          "type": "uint256"
        },
        {
          "indexed": false,
          "internalType": "uint256",
          "name": "recordId",
          "type": "uint256"
        },
        {
          "indexed": false,
          "internalType": "string",
          "name": "recordHash",
          "type": "string"
        }
      ],
      "name": "MedicalRecordAdded",
      "type": "event"
    },
    {
      "anonymous": false,
      "inputs": [
        {
          "indexed": true,
          "internalType": "address",
          "name": "patient",
          "type": "address"
        },
        {
          "indexed": false,
          "internalType": "uint256",
          "name": "patientId",
          "type": "uint256"
        },
        {
          "indexed": false,
          "internalType": "string",
          "name": "name",
          "type": "string"
        }
      ],
      "name": "PatientRegistered",
      "type": "event"
    },
    {
      "inputs": [
        {
          "internalType": "uint256",
          "name": "patientId",
          "type": "uint256"
        },
        {
          "internalType": "string",
          "name": "recordHash",
          "type": "string"
        },
        {
          "internalType": "string",
          "name": "recordType",
          "type": "string"
        }
      ],
      "name": "addEmergencyRecord",
      "outputs": [],
      "stateMutability": "nonpayable",
      "type": "function"
    },
    {
      "inputs": [
        {
          "internalType": "uint256",
          "name": "patientId",
          "type": "uint256"
        },
        {
          "internalType": "string",
          "name": "recordHash",
          "type": "string"
        },
        {
          "internalType": "string",
          "name": "recordType",
          "type": "string"
        }
      ],
      "name": "addMedicalRecord",
      "outputs": [],
      "stateMutability": "nonpayable",
      "type": "function"
    },
    {
      "inputs": [
        {
          "internalType": "address",
          "name": "",
          "type": "address"
        },
        {
          "internalType": "uint256",
          "name": "",
          "type": "uint256"
        }
      ],
      "name": "doctorPatients",
      "outputs": [
        {
          "internalType": "uint256",
          "name": "",
          "type": "uint256"
        }
      ],
      "stateMutability": "view",
      "type": "function"
    },
    {
      "inputs": [
        {
          "internalType": "address",
          "name": "",
          "type": "address"
        }
      ],
      "name": "doctors",
      "outputs": [
        {
          "internalType": "address",
          "name": "doctorAddress",
          "type": "address"
        },
        {
          "internalType": "string",
          "name": "name",
          "type": "string"
        },
        {
          "internalType": "string",
          "name": "licenseNumber",
          "type": "string"
        },
        {
          "internalType": "bool",
          "name": "isActive",
          "type": "bool"
        },
        {
          "internalType": "uint256",
          "name": "registrationDate",
          "type": "uint256"
        }
      ],
      "stateMutability": "view",
      "type": "function"
    },
    {
      "inputs": [
        {
          "internalType": "address",
          "name": "doctorAddress",
          "type": "address"
        }
      ],
      "name": "getDoctor",
      "outputs": [
        {
          "components": [
            {
              "internalType": "address",
              "name": "doctorAddress",
              "type": "address"
            },
            {
              "internalType": "string",
              "name": "name",
              "type": "string"
            },
            {
              "internalType": "string",
              "name": "licenseNumber",
              "type": "string"
            },
            {
              "internalType": "bool",
              "name": "isActive",
              "type": "bool"
            },
            {
              "internalType": "uint256",
              "name": "registrationDate",
              "type": "uint256"
            }
          ],
          "internalType": "struct HealthcareRegistry.Doctor",
          "name": "",
          "type": "tuple"
        }
      ],
      "stateMutability": "view",
      "type": "function"
    },
    {
      "inputs": [
        {
          "internalType": "address",
          "name": "doctorAddress",
          "type": "address"
        }
      ],
      "name": "getDoctorPatients",
      "outputs": [
        {
          "internalType": "uint256[]",
          "name": "",
          "type": "uint256[]"
        }
      ],
      "stateMutability": "view",
      "type": "function"
    },
    {
      "inputs": [
        {
          "internalType": "uint256",
          "name": "patientId",
          "type": "uint256"
        }
      ],
      "name": "getPatient",
      "outputs": [
        {
          "components": [
            {
              "internalType": "uint256",
              "name": "patientId",
              "type": "uint256"
            },
            {
              "internalType": "string",
              "name": "name",
              "type": "string"
            },
            {
              "internalType": "uint256",
              "name": "dateOfBirth",
              "type": "uint256"
            },
            {
              "internalType": "string",
              "name": "bloodType",
              "type": "string"
            },
            {
              "internalType": "bool",
              "name": "isActive",
              "type": "bool"
            },
            {
              "internalType": "uint256",
              "name": "registrationDate",
              "type": "uint256"
            },
            {
              "internalType": "address",
              "name": "patientAddress",
              "type": "address"
            }
          ],
          "internalType": "struct HealthcareRegistry.Patient",
          "name": "",
          "type": "tuple"
        }
      ],
      "stateMutability": "view",
      "type": "function"
    },
    {
      "inputs": [
        {
          "internalType": "uint256",
          "name": "patientId",
          "type": "uint256"
        }
      ],
      "name": "getPatientDoctors",
      "outputs": [
        {
          "internalType": "address[]",
          "name": "",
          "type": "address[]"
        }
      ],
      "stateMutability": "view",
      "type": "function"
    },
    {
      "inputs": [
        {
          "internalType": "address",
          "name": "patientAddress",
          "type": "address"
        }
      ],
      "name": "getPatientIdByAddress",
      "outputs": [
        {
          "internalType": "uint256",
          "name": "",
          "type": "uint256"
        }
      ],
      "stateMutability": "view",
      "type": "function"
    },
    {
      "inputs": [
        {
          "internalType": "uint256",
          "name": "patientId",
          "type": "uint256"
        }
      ],
      "name": "getPatientRecords",
      "outputs": [
        {
          "components": [
            {
              "internalType": "uint256",
              "name": "recordId",
              "type": "uint256"
            },
            {
              "internalType": "uint256",
              "name": "patientId",
              "type": "uint256"
            },
            {
              "internalType": "string",
              "name": "recordHash",
              "type": "string"
            },
            {
              "internalType": "uint256",
              "name": "timestamp",
              "type": "uint256"
            },
            {
              "internalType": "address",
              "name": "doctorAddress",
              "type": "address"
            },
            {
              "internalType": "string",
              "name": "recordType",
              "type": "string"
            },
            {
              "internalType": "bool",
              "name": "isEmergency",
              "type": "bool"
            }
          ],
          "internalType": "struct HealthcareRegistry.MedicalRecord[]",
          "name": "",
          "type": "tuple[]"
        }
      ],
      "stateMutability": "view",
      "type": "function"
    },
    {
      "inputs": [],
      "name": "getTotalPatients",
      "outputs": [
        {
          "internalType": "uint256",
          "name": "",
          "type": "uint256"
        }
      ],
      "stateMutability": "view",
      "type": "function"
    },
    {
      "inputs": [],
      "name": "getTotalRecords",
      "outputs": [
        {
          "internalType": "uint256",
          "name": "",
          "type": "uint256"
        }
      ],
      "stateMutability": "view",
      "type": "function"
    },
    {
      "inputs": [
        {
          "internalType": "address",
          "name": "doctorAddress",
          "type": "address"
        },
        {
          "internalType": "uint256",
          "name": "patientId",
          "type": "uint256"
        }
      ],
      "name": "grantAccess",
      "outputs": [],
      "stateMutability": "nonpayable",
      "type": "function"
    },
    {
      "inputs": [
        {
          "internalType": "address",
          "name": "doctorAddress",
          "type": "address"
        },
        {
          "internalType": "uint256",
          "name": "patientId",
          "type": "uint256"
        }
      ],
      "name": "isDoctorForPatient",
      "outputs": [
        {
          "internalType": "bool",
          "name": "",
          "type": "bool"
        }
      ],
      "stateMutability": "view",
      "type": "function"
    },
    {
      "inputs": [
        {
          "internalType": "uint256",
          "name": "",
          "type": "uint256"
        }
      ],
      "name": "medicalRecords",
      "outputs": [
        {
          "internalType": "uint256",
          "name": "recordId",
          "type": "uint256"
        },
        {
          "internalType": "uint256",
          "name": "patientId",
          "type": "uint256"
        },
        {
          "internalType": "string",
          "name": "recordHash",
          "type": "string"
        },
        {
          "internalType": "uint256",
          "name": "timestamp",
          "type": "uint256"
        },
        {
          "internalType": "address",
          "name": "doctorAddress",
          "type": "address"
        },
        {
          "internalType": "string",
          "name": "recordType",
          "type": "string"
        },
        {
          "internalType": "bool",
          "name": "isEmergency",
          "type": "bool"
        }
      ],
      "stateMutability": "view",
      "type": "function"
    },
    {
      "inputs": [],
      "name": "owner",
      "outputs": [
        {
          "internalType": "address",
          "name": "",
          "type": "address"
        }
      ],
      "stateMutability": "view",
      "type": "function"
    },
    {
      "inputs": [
        {
          "internalType": "address",
          "name": "",
          "type": "address"
        }
      ],
      "name": "patientAddressToId",
      "outputs": [
        {
          "internalType": "uint256",
          "name": "",
          "type": "uint256"
        }
      ],
      "stateMutability": "view",
      "type": "function"
    },
    {
      "inputs": [
        {
          "internalType": "uint256",
          "name": "",
          "type": "uint256"
        },
        {
          "internalType": "uint256",
          "name": "",
          "type": "uint256"
        }
      ],
      "name": "patientDoctors",
      "outputs": [
        {
          "internalType": "address",
          "name": "",
          "type": "address"
        }
      ],
      "stateMutability": "view",
      "type": "function"
    },
    {
      "inputs": [
        {
          "internalType": "uint256",
          "name": "",
          "type": "uint256"
        },
        {
          "internalType": "uint256",
          "name": "",
          "type": "uint256"
        }
      ],
      "name": "patientRecords",
      "outputs": [
        {
          "internalType": "uint256",
          "name": "recordId",
          "type": "uint256"
        },
        {
          "internalType": "uint256",
          "name": "patientId",
          "type": "uint256"
        },
        {
          "internalType": "string",
          "name": "recordHash",
          "type": "string"
        },
        {
          "internalType": "uint256",
          "name": "timestamp",
          "type": "uint256"
        },
        {
          "internalType": "address",
          "name": "doctorAddress",
          "type": "address"
        },
        {
          "internalType": "string",
          "name": "recordType",
          "type": "string"
        },
        {
          "internalType": "bool",
          "name": "isEmergency",
          "type": "bool"
        }
      ],
      "stateMutability": "view",
      "type": "function"
    },
    {
      "inputs": [
        {
          "internalType": "uint256",
          "name": "",
          "type": "uint256"
        }
      ],
      "name": "patients",
      "outputs": [
        {
          "internalType": "uint256",
          "name": "patientId",
          "type": "uint256"
        },
        {
          "internalType": "string",
          "name": "name",
          "type": "string"
        },
        {
          "internalType": "uint256",
          "name": "dateOfBirth",
          "type": "uint256"
        },
        {
          "internalType": "string",
          "name": "bloodType",
          "type": "string"
        },
        {
          "internalType": "bool",
          "name": "isActive",
          "type": "bool"
        },
        {
          "internalType": "uint256",
          "name": "registrationDate",
          "type": "uint256"
        },
        {
          "internalType": "address",
          "name": "patientAddress",
          "type": "address"
        }
      ],
      "stateMutability": "view",
      "type": "function"
    },
    {
      "inputs": [
        {
          "internalType": "address",
          "name": "doctorAddress",
          "type": "address"
        },
        {
          "internalType": "string",
          "name": "name",
          "type": "string"
        },
        {
          "internalType": "string",
          "name": "licenseNumber",
          "type": "string"
        }
      ],
      "name": "registerDoctor",
      "outputs": [],
      "stateMutability": "nonpayable",
      "type": "function"
    },
    {
      "inputs": [
        {
          "internalType": "string",
          "name": "name",
          "type": "string"
        },
        {
          "internalType": "uint256",
          "name": "dateOfBirth",
          "type": "uint256"
        },
        {
          "internalType": "string",
          "name": "bloodType",
          "type": "string"
        }
      ],
      "name": "registerPatient",
      "outputs": [],
      "stateMutability": "nonpayable",
      "type": "function"
    },
    {
      "inputs": [
        {
          "internalType": "address",
          "name": "doctorAddress",
          "type": "address"
        },
        {
          "internalType": "uint256",
          "name": "patientId",
          "type": "uint256"
        }
      ],
      "name": "revokeAccess",
      "outputs": [],
      "stateMutability": "nonpayable",
      "type": "function"
    }
  ],
  "bytecode": "0x6080604052600180556001600255348015601857600080fd5b50600080546001600160a01b0319163317905561271e8061003a6000396000f3fe608060405234801561001057600080fd5b506004361061014d5760003560e01c8063815d37b5116100c3578063a9583c221161007c578063a9583c2214610327578063a99d83791461034b578063ba5084671461035e578063dce7e8431461037e578063f293adfc1461039e578063f497e189146103c157600080fd5b8063815d37b51461027f5780638da5cb5b146102a857806393119a83146102bb5780639df89256146102e15780639e3b6565146102f4578063a467ef681461030757600080fd5b80634ac9e300116101155780634ac9e300146101e857806353d08ef4146101fb5780635cb22fdc1461020e57806372573efb146102215780637564a13c1461024c5780637d3a67961461025f57600080fd5b80630aeacb5e146101525780630e3e3dd31461016d5780631d14c36e1461018d5780632f04e064146101a25780634035ae09146101c2575b600080fd5b61015a6103c9565b6040519081526020015b60405180910390f35b61015a61017b366004611f1f565b60066020526000908152604090205481565b6101a061019b366004611fe6565b6103df565b005b6101b56101b0366004611f1f565b610603565b604051610164919061209e565b6101d56101d036600461210c565b6107b7565b604051610164979695949392919061212e565b61015a6101f636600461218c565b610937565b6101a06102093660046121b6565b610968565b6101a061021c366004612219565b610b7e565b61023461022f36600461210c565b610e84565b6040516001600160a01b039091168152602001610164565b6101d561025a36600461224c565b610ebc565b61027261026d36600461224c565b610ee4565b6040516101649190612265565b61015a61028d366004611f1f565b6001600160a01b031660009081526006602052604090205490565b600054610234906001600160a01b031681565b6102ce6102c936600461224c565b6110b8565b60405161016497969594939291906122e8565b6101a06102ef36600461218c565b611212565b6101a0610302366004612219565b61141e565b61031a61031536600461224c565b61174b565b6040516101649190612342565b61033a610335366004611f1f565b6117b7565b60405161016495949392919061238e565b6101a061035936600461218c565b611904565b61037161036c366004611f1f565b611c2d565b60405161016491906123d9565b61039161038c36600461224c565b611c98565b6040516101649190612411565b6103b16103ac36600461218c565b611e75565b6040519015158152602001610164565b61015a611ef3565b600060016002546103da91906124f0565b905090565b600083511161042c5760405162461bcd60e51b81526020600482015260146024820152734e616d652063616e6e6f7420626520656d70747960601b60448201526064015b60405180910390fd5b600082116104745760405162461bcd60e51b8152602060048201526015602482015274092dcecc2d8d2c840c8c2e8ca40decc40c4d2e4e8d605b1b6044820152606401610423565b33600090815260066020526040902054156104d15760405162461bcd60e51b815260206004820152601a60248201527f50617469656e7420616c726561647920726567697374657265640000000000006044820152606401610423565b60018054600091826104e283612503565b909155506040805160e0810182528281526020808201888152828401889052606083018790526001608084018190524260a08501523360c085015260008681526003909352939091208251815590519394509092909182019061054590826125a5565b50604082015160028201556060820151600382019061056490826125a5565b50608082015160048201805460ff191691151591909117905560a0820151600582015560c090910151600691820180546001600160a01b0319166001600160a01b0390921691909117905533600081815260209290925260409182902083905590517fd2be82c3f5d4db1497cd8e9fb526aa939bedd14aeceb0cc841ecc3435b97c2b1906105f59084908890612664565b60405180910390a250505050565b6106406040518060a0016040528060006001600160a01b031681526020016060815260200160608152602001600015158152602001600081525090565b6001600160a01b03808316600090815260056020908152604091829020825160a0810190935280549093168252600183018054929392918401916106839061251c565b80601f01602080910402602001604051908101604052809291908181526020018280546106af9061251c565b80156106fc5780601f106106d1576101008083540402835291602001916106fc565b820191906000526020600020905b8154815290600101906020018083116106df57829003601f168201915b505050505081526020016002820180546107159061251c565b80601f01602080910402602001604051908101604052809291908181526020018280546107419061251c565b801561078e5780601f106107635761010080835404028352916020019161078e565b820191906000526020600020905b81548152906001019060200180831161077157829003601f168201915b5050509183525050600382015460ff161515602082015260049091015460409091015292915050565b600960205281600052604060002081815481106107d357600080fd5b9060005260206000209060070201600091509150508060000154908060010154908060020180546108039061251c565b80601f016020809104026020016040519081016040528092919081815260200182805461082f9061251c565b801561087c5780601f106108515761010080835404028352916020019161087c565b820191906000526020600020905b81548152906001019060200180831161085f57829003601f168201915b5050505060038301546004840154600585018054949592946001600160a01b039092169350906108ab9061251c565b80601f01602080910402602001604051908101604052809291908181526020018280546108d79061251c565b80156109245780601f106108f957610100808354040283529160200191610924565b820191906000526020600020905b81548152906001019060200180831161090757829003601f168201915b5050506006909301549192505060ff1687565b6008602052816000526040600020818154811061095357600080fd5b90600052602060002001600091509150505481565b6000546001600160a01b031633146109cd5760405162461bcd60e51b815260206004820152602260248201527f4f6e6c79206f776e65722063616e20706572666f726d2074686973206163746960448201526137b760f11b6064820152608401610423565b6000825111610a155760405162461bcd60e51b81526020600482015260146024820152734e616d652063616e6e6f7420626520656d70747960601b6044820152606401610423565b6000815111610a665760405162461bcd60e51b815260206004820152601e60248201527f4c6963656e7365206e756d6265722063616e6e6f7420626520656d70747900006044820152606401610423565b6001600160a01b03831660009081526005602052604090206003015460ff1615610ad25760405162461bcd60e51b815260206004820152601960248201527f446f63746f7220616c72656164792072656769737465726564000000000000006044820152606401610423565b6040805160a0810182526001600160a01b0385811680835260208084018781528486018790526001606086018190524260808701526000938452600590925294909120835181546001600160a01b031916931692909217825592519192909190820190610b3f90826125a5565b5060408201516002820190610b5490826125a5565b50606082015160038201805460ff1916911515919091179055608090910151600490910155505050565b3360009081526005602052604090206003015460ff16610c065760405162461bcd60e51b815260206004820152603b60248201527f4f6e6c79207265676973746572656420656d657267656e63792070726f76696460448201527f6572732063616e20706572666f726d207468697320616374696f6e00000000006064820152608401610423565b60008381526003602052604090206004015460ff16610c375760405162461bcd60e51b815260040161042390612685565b6000825111610c885760405162461bcd60e51b815260206004820152601b60248201527f5265636f726420686173682063616e6e6f7420626520656d70747900000000006044820152606401610423565b6002805460009182610c9983612503565b909155506040805160e081018252828152602080820188815282840188815242606085015233608085015260a08401889052600160c0850181905260008781526004909452949092208351815590519381019390935551929350918291906002820190610d0690826125a5565b506060820151600382015560808201516004820180546001600160a01b0319166001600160a01b0390921691909117905560a08201516005820190610d4b90826125a5565b5060c091909101516006909101805460ff1916911515919091179055600085815260096020908152604080832080546001818101835591855293839020855160079095020193845591840151918301919091558201518291906002820190610db390826125a5565b506060820151600382015560808201516004820180546001600160a01b0319166001600160a01b0390921691909117905560a08201516005820190610df890826125a5565b5060c091909101516006909101805460ff191691151591909117905560405185907f1f30f38b4f871adca727d3828cdd92e1d3ba6c231a941a699585e7a2ac79672690610e489085908890612664565b60405180910390a2604051859033907fa8490315f1aa2f469135303d57df8668cce5c0a1b34272df733ab9c1b9090e6490600090a35050505050565b60076020528160005260406000208181548110610ea057600080fd5b6000918252602090912001546001600160a01b03169150829050565b600460205260009081526040902080546001820154600283018054929391926108039061251c565b610f2f6040518060e00160405280600081526020016060815260200160008152602001606081526020016000151581526020016000815260200160006001600160a01b031681525090565b600360008381526020019081526020016000206040518060e001604052908160008201548152602001600182018054610f679061251c565b80601f0160208091040260200160405190810160405280929190818152602001828054610f939061251c565b8015610fe05780601f10610fb557610100808354040283529160200191610fe0565b820191906000526020600020905b815481529060010190602001808311610fc357829003601f168201915b50505050508152602001600282015481526020016003820180546110039061251c565b80601f016020809104026020016040519081016040528092919081815260200182805461102f9061251c565b801561107c5780601f106110515761010080835404028352916020019161107c565b820191906000526020600020905b81548152906001019060200180831161105f57829003601f168201915b5050509183525050600482015460ff1615156020820152600582015460408201526006909101546001600160a01b031660609091015292915050565b600360205260009081526040902080546001820180549192916110da9061251c565b80601f01602080910402602001604051908101604052809291908181526020018280546111069061251c565b80156111535780601f1061112857610100808354040283529160200191611153565b820191906000526020600020905b81548152906001019060200180831161113657829003601f168201915b50505050509080600201549080600301805461116e9061251c565b80601f016020809104026020016040519081016040528092919081815260200182805461119a9061251c565b80156111e75780601f106111bc576101008083540402835291602001916111e7565b820191906000526020600020905b8154815290600101906020018083116111ca57829003601f168201915b5050505060048301546005840154600690940154929360ff909116929091506001600160a01b031687565b60008181526003602052604090206004015460ff166112435760405162461bcd60e51b815260040161042390612685565b6001600160a01b03821660009081526005602052604090206003015460ff166112ae5760405162461bcd60e51b815260206004820152601c60248201527f446f63746f72206e6f7420666f756e64206f7220696e616374697665000000006044820152606401610423565b336000908152600660205260409020548114806112d557506000546001600160a01b031633145b6113305760405162461bcd60e51b815260206004820152602660248201527f4f6e6c792070617469656e74206f72206f776e65722063616e206772616e742060448201526561636365737360d01b6064820152608401610423565b60005b60008281526007602052604090205481101561139c57600082815260076020526040902080546001600160a01b038516919083908110611375576113756126bc565b6000918252602090912001546001600160a01b03160361139457505050565b600101611333565b5060008181526007602090815260408083208054600180820183559185528385200180546001600160a01b0319166001600160a01b03881690811790915580855260088452828520805492830181558552928420018490555183927fb4c6779ceb4a20f448e76a0e11f39bd183cff9c9dbac53df6bfcc202e2eb32f191a35050565b3360009081526005602052604090206003015460ff166114985760405162461bcd60e51b815260206004820152602f60248201527f4f6e6c79207265676973746572656420646f63746f72732063616e207065726660448201526e37b936903a3434b99030b1ba34b7b760891b6064820152608401610423565b60008381526003602052604090206004015460ff166114c95760405162461bcd60e51b815260040161042390612685565b600082511161151a5760405162461bcd60e51b815260206004820152601b60248201527f5265636f726420686173682063616e6e6f7420626520656d70747900000000006044820152606401610423565b6115243384611e75565b61157f5760405162461bcd60e51b815260206004820152602660248201527f446f63746f72206e6f7420617574686f72697a656420666f7220746869732070604482015265185d1a595b9d60d21b6064820152608401610423565b600280546000918261159083612503565b909155506040805160e081018252828152602080820188815282840188815242606085015233608085015260a08401889052600060c08501819052868152600490935293909120825181559051600182015591519293509182919060028201906115fa90826125a5565b506060820151600382015560808201516004820180546001600160a01b0319166001600160a01b0390921691909117905560a0820151600582019061163f90826125a5565b5060c091909101516006909101805460ff19169115159190911790556000858152600960209081526040808320805460018181018355918552938390208551600790950201938455918401519183019190915582015182919060028201906116a790826125a5565b506060820151600382015560808201516004820180546001600160a01b0319166001600160a01b0390921691909117905560a082015160058201906116ec90826125a5565b5060c091909101516006909101805460ff191691151591909117905560405185907f1f30f38b4f871adca727d3828cdd92e1d3ba6c231a941a699585e7a2ac7967269061173c9085908890612664565b60405180910390a25050505050565b6000818152600760209081526040918290208054835181840281018401909452808452606093928301828280156117ab57602002820191906000526020600020905b81546001600160a01b0316815260019091019060200180831161178d575b50505050509050919050565b600560205260009081526040902080546001820180546001600160a01b0390921692916117e39061251c565b80601f016020809104026020016040519081016040528092919081815260200182805461180f9061251c565b801561185c5780601f106118315761010080835404028352916020019161185c565b820191906000526020600020905b81548152906001019060200180831161183f57829003601f168201915b5050505050908060020180546118719061251c565b80601f016020809104026020016040519081016040528092919081815260200182805461189d9061251c565b80156118ea5780601f106118bf576101008083540402835291602001916118ea565b820191906000526020600020905b8154815290600101906020018083116118cd57829003601f168201915b505050506003830154600490930154919260ff1691905085565b3360009081526006602052604090205481148061192b57506000546001600160a01b031633145b6119875760405162461bcd60e51b815260206004820152602760248201527f4f6e6c792070617469656e74206f72206f776e65722063616e207265766f6b656044820152662061636365737360c81b6064820152608401610423565b60005b600082815260076020526040902054811015611ac257600082815260076020526040902080546001600160a01b0385169190839081106119cc576119cc6126bc565b6000918252602090912001546001600160a01b031603611aba5760008281526007602052604090208054611a02906001906124f0565b81548110611a1257611a126126bc565b60009182526020808320909101548483526007909152604090912080546001600160a01b039092169183908110611a4b57611a4b6126bc565b600091825260208083209190910180546001600160a01b0319166001600160a01b039490941693909317909255838152600790915260409020805480611a9357611a936126d2565b600082815260209020810160001990810180546001600160a01b0319169055019055611ac2565b60010161198a565b5060005b6001600160a01b038316600090815260086020526040902054811015611bf2576001600160a01b0383166000908152600860205260409020805483919083908110611b1357611b136126bc565b906000526020600020015403611bea576001600160a01b03831660009081526008602052604090208054611b49906001906124f0565b81548110611b5957611b596126bc565b906000526020600020015460086000856001600160a01b03166001600160a01b031681526020019081526020016000208281548110611b9a57611b9a6126bc565b60009182526020808320909101929092556001600160a01b0385168152600890915260409020805480611bcf57611bcf6126d2565b60019003818190600052602060002001600090559055611bf2565b600101611ac6565b5060405181906001600160a01b038416907fb11340c2209a7f3d45f1892c58bf80c7f85676ff4f232e0546efecdf65c64b9690600090a35050565b6001600160a01b0381166000908152600860209081526040918290208054835181840281018401909452808452606093928301828280156117ab57602002820191906000526020600020905b815481526020019060010190808311611c795750505050509050919050565b606060096000838152602001908152602001600020805480602002602001604051908101604052809291908181526020016000905b82821015611e6a57838290600052602060002090600702016040518060e00160405290816000820154815260200160018201548152602001600282018054611d149061251c565b80601f0160208091040260200160405190810160405280929190818152602001828054611d409061251c565b8015611d8d5780601f10611d6257610100808354040283529160200191611d8d565b820191906000526020600020905b815481529060010190602001808311611d7057829003601f168201915b50505091835250506003820154602082015260048201546001600160a01b03166040820152600582018054606090920191611dc79061251c565b80601f0160208091040260200160405190810160405280929190818152602001828054611df39061251c565b8015611e405780601f10611e1557610100808354040283529160200191611e40565b820191906000526020600020905b815481529060010190602001808311611e2357829003601f168201915b50505091835250506006919091015460ff1615156020918201529082526001929092019101611ccd565b505050509050919050565b6000805b600083815260076020526040902054811015611ee757600083815260076020526040902080546001600160a01b038616919083908110611ebb57611ebb6126bc565b6000918252602090912001546001600160a01b031603611edf576001915050611eed565b600101611e79565b50600090505b92915050565b6000600180546103da91906124f0565b80356001600160a01b0381168114611f1a57600080fd5b919050565b600060208284031215611f3157600080fd5b611f3a82611f03565b9392505050565b634e487b7160e01b600052604160045260246000fd5b600082601f830112611f6857600080fd5b813567ffffffffffffffff811115611f8257611f82611f41565b604051601f8201601f19908116603f0116810167ffffffffffffffff81118282101715611fb157611fb1611f41565b604052818152838201602001851015611fc957600080fd5b816020850160208301376000918101602001919091529392505050565b600080600060608486031215611ffb57600080fd5b833567ffffffffffffffff81111561201257600080fd5b61201e86828701611f57565b93505060208401359150604084013567ffffffffffffffff81111561204257600080fd5b61204e86828701611f57565b9150509250925092565b6000815180845260005b8181101561207e57602081850181015186830182015201612062565b506000602082860101526020601f19601f83011685010191505092915050565b602080825282516001600160a01b03168282015282015160a060408301526000906120cc60c0840182612058565b90506040840151601f198483030160608501526120e98282612058565b915050606084015115156080840152608084015160a08401528091505092915050565b6000806040838503121561211f57600080fd5b50508035926020909101359150565b87815286602082015260e06040820152600061214d60e0830188612058565b606083018790526001600160a01b038616608084015282810360a08401526121758186612058565b91505082151560c083015298975050505050505050565b6000806040838503121561219f57600080fd5b6121a883611f03565b946020939093013593505050565b6000806000606084860312156121cb57600080fd5b6121d484611f03565b9250602084013567ffffffffffffffff8111156121f057600080fd5b6121fc86828701611f57565b925050604084013567ffffffffffffffff81111561204257600080fd5b60008060006060848603121561222e57600080fd5b83359250602084013567ffffffffffffffff8111156121f057600080fd5b60006020828403121561225e57600080fd5b5035919050565b60208152815160208201526000602083015160e0604084015261228c610100840182612058565b9050604084015160608401526060840151601f198483030160808501526122b38282612058565b9150506080840151151560a084015260a084015160c084015260018060a01b0360c08501511660e08401528091505092915050565b87815260e06020820152600061230160e0830189612058565b87604084015282810360608401526123198188612058565b9515156080840152505060a08101929092526001600160a01b031660c090910152949350505050565b602080825282518282018190526000918401906040840190835b818110156123835783516001600160a01b031683526020938401939092019160010161235c565b509095945050505050565b6001600160a01b038616815260a0602082018190526000906123b290830187612058565b82810360408401526123c48187612058565b94151560608401525050608001529392505050565b602080825282518282018190526000918401906040840190835b818110156123835783518352602093840193909201916001016123f3565b6000602082016020835280845180835260408501915060408160051b86010192506020860160005b828110156124ce57603f1987860301845281518051865260208101516020870152604081015160e0604088015261247360e0880182612058565b90506060820151606088015260018060a01b03608083015116608088015260a082015187820360a08901526124a88282612058565b60c093840151151598909301979097525094506020938401939190910190600101612439565b50929695505050505050565b634e487b7160e01b600052601160045260246000fd5b81810381811115611eed57611eed6124da565b600060018201612515576125156124da565b5060010190565b600181811c9082168061253057607f821691505b60208210810361255057634e487b7160e01b600052602260045260246000fd5b50919050565b601f8211156125a057806000526020600020601f840160051c8101602085101561257d5750805b601f840160051c820191505b8181101561259d5760008155600101612589565b50505b505050565b815167ffffffffffffffff8111156125bf576125bf611f41565b6125d3816125cd845461251c565b84612556565b6020601f82116001811461260757600083156125ef5750848201515b600019600385901b1c1916600184901b17845561259d565b600084815260208120601f198516915b828110156126375787850151825560209485019460019092019101612617565b50848210156126555786840151600019600387901b60f8161c191681555b50505050600190811b01905550565b82815260406020820152600061267d6040830184612058565b949350505050565b6020808252601d908201527f50617469656e74206e6f7420666f756e64206f7220696e616374697665000000604082015260600190565b634e487b7160e01b600052603260045260246000fd5b634e487b7160e01b600052603160045260246000fdfea264697066735822122038779e5241aabcf1587d3d4b0320b59e1f7621815111481fa6ceb0cd1aa44c6e64736f6c634300081c0033",
  "linkReferences": {},
  "deployedLinkReferences": {}
}