{
  "_format": "hh-sol-artifact-1",
  "contractName": "HealthcareRecords",
  "sourceName": "contracts/HealthcareRecords.sol",
  "abi": [
    {
      "inputs": [],
      "stateMutability": "nonpayable",
      "type": "constructor"
    },
    {
      "anonymous": false,
      "inputs": [
        {
          "indexed": false,
          "internalType": "address",
          "name": "doctorAddress",
          "type": "address"
        },
        {
          "indexed": false,
          "internalType": "string",
          "name": "patientId",
          "type": "string"
        },
        {
          "indexed": false,
          "internalType": "uint256",
          "name": "timestamp",
          "type": "uint256"
        }
      ],
      "name": "AccessGranted",
      "type": "event"
    },
    {
      "anonymous": false,
      "inputs": [
        {
          "indexed": false,
          "internalType": "address",
          "name": "doctorAddress",
          "type": "address"
        },
        {
          "indexed": false,
          "internalType": "string",
          "name": "patientId",
          "type": "string"
        },
        {
          "indexed": false,
          "internalType": "uint256",
          "name": "timestamp",
          "type": "uint256"
        }
      ],
      "name": "AccessRevoked",
      "type": "event"
    },
    {
      "anonymous": false,
      "inputs": [
        {
          "indexed": false,
          "internalType": "string",
          "name": "patientId",
          "type": "string"
        },
        {
          "indexed": false,
          "internalType": "address",
          "name": "doctorAddress",
          "type": "address"
        },
        {
          "indexed": false,
          "internalType": "uint256",
          "name": "timestamp",
          "type": "uint256"
        }
      ],
      "name": "ConsentGiven",
      "type": "event"
    },
    {
      "anonymous": false,
      "inputs": [
        {
          "indexed": false,
          "internalType": "string",
          "name": "patientId",
          "type": "string"
        },
        {
          "indexed": false,
          "internalType": "address",
          "name": "doctorAddress",
          "type": "address"
        },
        {
          "indexed": false,
          "internalType": "uint256",
          "name": "timestamp",
          "type": "uint256"
        }
      ],
      "name": "ConsentRevoked",
      "type": "event"
    },
    {
      "anonymous": false,
      "inputs": [
        {
          "indexed": false,
          "internalType": "address",
          "name": "doctorAddress",
          "type": "address"
        },
        {
          "indexed": false,
          "internalType": "string",
          "name": "name",
          "type": "string"
        },
        {
          "indexed": false,
          "internalType": "uint256",
          "name": "timestamp",
          "type": "uint256"
        }
      ],
      "name": "DoctorRegistered",
      "type": "event"
    },
    {
      "anonymous": false,
      "inputs": [
        {
          "indexed": false,
          "internalType": "string",
          "name": "patientId",
          "type": "string"
        },
        {
          "indexed": false,
          "internalType": "string",
          "name": "name",
          "type": "string"
        },
        {
          "indexed": false,
          "internalType": "uint256",
          "name": "timestamp",
          "type": "uint256"
        }
      ],
      "name": "PatientRegistered",
      "type": "event"
    },
    {
      "anonymous": false,
      "inputs": [
        {
          "indexed": false,
          "internalType": "string",
          "name": "patientId",
          "type": "string"
        },
        {
          "indexed": false,
          "internalType": "string",
          "name": "recordId",
          "type": "string"
        },
        {
          "indexed": false,
          "internalType": "uint256",
          "name": "timestamp",
          "type": "uint256"
        }
      ],
      "name": "RecordAdded",
      "type": "event"
    },
    {
      "inputs": [
        {
          "internalType": "string",
          "name": "patientId",
          "type": "string"
        },
        {
          "internalType": "string",
          "name": "recordId",
          "type": "string"
        },
        {
          "internalType": "string",
          "name": "diagnosis",
          "type": "string"
        },
        {
          "internalType": "string",
          "name": "treatment",
          "type": "string"
        },
        {
          "internalType": "string",
          "name": "medication",
          "type": "string"
        },
        {
          "internalType": "string",
          "name": "ipfsHash",
          "type": "string"
        }
      ],
      "name": "addMedicalRecord",
      "outputs": [],
      "stateMutability": "nonpayable",
      "type": "function"
    },
    {
      "inputs": [
        {
          "internalType": "address",
          "name": "",
          "type": "address"
        }
      ],
      "name": "authorizedDoctors",
      "outputs": [
        {
          "internalType": "bool",
          "name": "",
          "type": "bool"
        }
      ],
      "stateMutability": "view",
      "type": "function"
    },
    {
      "inputs": [
        {
          "internalType": "address",
          "name": "",
          "type": "address"
        }
      ],
      "name": "authorizedPatients",
      "outputs": [
        {
          "internalType": "bool",
          "name": "",
          "type": "bool"
        }
      ],
      "stateMutability": "view",
      "type": "function"
    },
    {
      "inputs": [
        {
          "internalType": "string",
          "name": "",
          "type": "string"
        },
        {
          "internalType": "address",
          "name": "",
          "type": "address"
        }
      ],
      "name": "consents",
      "outputs": [
        {
          "internalType": "string",
          "name": "patientId",
          "type": "string"
        },
        {
          "internalType": "address",
          "name": "doctorAddress",
          "type": "address"
        },
        {
          "internalType": "uint256",
          "name": "consentDate",
          "type": "uint256"
        },
        {
          "internalType": "uint256",
          "name": "expiryDate",
          "type": "uint256"
        },
        {
          "internalType": "bool",
          "name": "isActive",
          "type": "bool"
        }
      ],
      "stateMutability": "view",
      "type": "function"
    },
    {
      "inputs": [
        {
          "internalType": "address",
          "name": "",
          "type": "address"
        }
      ],
      "name": "doctors",
      "outputs": [
        {
          "internalType": "string",
          "name": "doctorId",
          "type": "string"
        },
        {
          "internalType": "string",
          "name": "name",
          "type": "string"
        },
        {
          "internalType": "string",
          "name": "specialization",
          "type": "string"
        },
        {
          "internalType": "string",
          "name": "licenseNumber",
          "type": "string"
        },
        {
          "internalType": "bool",
          "name": "isActive",
          "type": "bool"
        },
        {
          "internalType": "uint256",
          "name": "registeredAt",
          "type": "uint256"
        }
      ],
      "stateMutability": "view",
      "type": "function"
    },
    {
      "inputs": [
        {
          "internalType": "string",
          "name": "patientId",
          "type": "string"
        },
        {
          "internalType": "string",
          "name": "recordId",
          "type": "string"
        },
        {
          "internalType": "string",
          "name": "diagnosis",
          "type": "string"
        },
        {
          "internalType": "string",
          "name": "treatment",
          "type": "string"
        }
      ],
      "name": "emergencyAccess",
      "outputs": [],
      "stateMutability": "nonpayable",
      "type": "function"
    },
    {
      "inputs": [
        {
          "internalType": "string",
          "name": "patientId",
          "type": "string"
        },
        {
          "internalType": "address",
          "name": "doctorAddress",
          "type": "address"
        }
      ],
      "name": "getConsentInfo",
      "outputs": [
        {
          "components": [
            {
              "internalType": "string",
              "name": "patientId",
              "type": "string"
            },
            {
              "internalType": "address",
              "name": "doctorAddress",
              "type": "address"
            },
            {
              "internalType": "uint256",
              "name": "consentDate",
              "type": "uint256"
            },
            {
              "internalType": "uint256",
              "name": "expiryDate",
              "type": "uint256"
            },
            {
              "internalType": "bool",
              "name": "isActive",
              "type": "bool"
            }
          ],
          "internalType": "struct HealthcareRecords.Consent",
          "name": "",
          "type": "tuple"
        }
      ],
      "stateMutability": "view",
      "type": "function"
    },
    {
      "inputs": [
        {
          "internalType": "address",
          "name": "doctorAddress",
          "type": "address"
        }
      ],
      "name": "getDoctorInfo",
      "outputs": [
        {
          "components": [
            {
              "internalType": "string",
              "name": "doctorId",
              "type": "string"
            },
            {
              "internalType": "string",
              "name": "name",
              "type": "string"
            },
            {
              "internalType": "string",
              "name": "specialization",
              "type": "string"
            },
            {
              "internalType": "string",
              "name": "licenseNumber",
              "type": "string"
            },
            {
              "internalType": "bool",
              "name": "isActive",
              "type": "bool"
            },
            {
              "internalType": "uint256",
              "name": "registeredAt",
              "type": "uint256"
            }
          ],
          "internalType": "struct HealthcareRecords.Doctor",
          "name": "",
          "type": "tuple"
        }
      ],
      "stateMutability": "view",
      "type": "function"
    },
    {
      "inputs": [
        {
          "internalType": "string",
          "name": "patientId",
          "type": "string"
        }
      ],
      "name": "getPatientInfo",
      "outputs": [
        {
          "components": [
            {
              "internalType": "string",
              "name": "patientId",
              "type": "string"
            },
            {
              "internalType": "string",
              "name": "name",
              "type": "string"
            },
            {
              "internalType": "uint256",
              "name": "dateOfBirth",
              "type": "uint256"
            },
            {
              "internalType": "string",
              "name": "bloodType",
              "type": "string"
            },
            {
              "internalType": "bool",
              "name": "isActive",
              "type": "bool"
            },
            {
              "internalType": "uint256",
              "name": "createdAt",
              "type": "uint256"
            },
            {
              "internalType": "address",
              "name": "authorizedBy",
              "type": "address"
            }
          ],
          "internalType": "struct HealthcareRecords.Patient",
          "name": "",
          "type": "tuple"
        }
      ],
      "stateMutability": "view",
      "type": "function"
    },
    {
      "inputs": [
        {
          "internalType": "string",
          "name": "patientId",
          "type": "string"
        }
      ],
      "name": "getPatientRecords",
      "outputs": [
        {
          "components": [
            {
              "internalType": "string",
              "name": "recordId",
              "type": "string"
            },
            {
              "internalType": "string",
              "name": "patientId",
              "type": "string"
            },
            {
              "internalType": "string",
              "name": "diagnosis",
              "type": "string"
            },
            {
              "internalType": "string",
              "name": "treatment",
              "type": "string"
            },
            {
              "internalType": "string",
              "name": "medication",
              "type": "string"
            },
            {
              "internalType": "uint256",
              "name": "recordDate",
              "type": "uint256"
            },
            {
              "internalType": "address",
              "name": "doctorAddress",
              "type": "address"
            },
            {
              "internalType": "bool",
              "name": "isEncrypted",
              "type": "bool"
            },
            {
              "internalType": "string",
              "name": "ipfsHash",
              "type": "string"
            }
          ],
          "internalType": "struct HealthcareRecords.MedicalRecord[]",
          "name": "",
          "type": "tuple[]"
        }
      ],
      "stateMutability": "view",
      "type": "function"
    },
    {
      "inputs": [
        {
          "internalType": "string",
          "name": "patientId",
          "type": "string"
        },
        {
          "internalType": "address",
          "name": "doctorAddress",
          "type": "address"
        },
        {
          "internalType": "uint256",
          "name": "expiryDate",
          "type": "uint256"
        }
      ],
      "name": "giveConsent",
      "outputs": [],
      "stateMutability": "nonpayable",
      "type": "function"
    },
    {
      "inputs": [
        {
          "internalType": "string",
          "name": "patientId",
          "type": "string"
        },
        {
          "internalType": "address",
          "name": "doctorAddress",
          "type": "address"
        }
      ],
      "name": "grantAccess",
      "outputs": [],
      "stateMutability": "nonpayable",
      "type": "function"
    },
    {
      "inputs": [
        {
          "internalType": "string",
          "name": "patientId",
          "type": "string"
        },
        {
          "internalType": "address",
          "name": "doctorAddress",
          "type": "address"
        }
      ],
      "name": "hasValidConsent",
      "outputs": [
        {
          "internalType": "bool",
          "name": "",
          "type": "bool"
        }
      ],
      "stateMutability": "view",
      "type": "function"
    },
    {
      "inputs": [
        {
          "internalType": "string",
          "name": "",
          "type": "string"
        },
        {
          "internalType": "uint256",
          "name": "",
          "type": "uint256"
        }
      ],
      "name": "patientRecords",
      "outputs": [
        {
          "internalType": "string",
          "name": "recordId",
          "type": "string"
        },
        {
          "internalType": "string",
          "name": "patientId",
          "type": "string"
        },
        {
          "internalType": "string",
          "name": "diagnosis",
          "type": "string"
        },
        {
          "internalType": "string",
          "name": "treatment",
          "type": "string"
        },
        {
          "internalType": "string",
          "name": "medication",
          "type": "string"
        },
        {
          "internalType": "uint256",
          "name": "recordDate",
          "type": "uint256"
        },
        {
          "internalType": "address",
          "name": "doctorAddress",
          "type": "address"
        },
        {
          "internalType": "bool",
          "name": "isEncrypted",
          "type": "bool"
        },
        {
          "internalType": "string",
          "name": "ipfsHash",
          "type": "string"
        }
      ],
      "stateMutability": "view",
      "type": "function"
    },
    {
      "inputs": [
        {
          "internalType": "string",
          "name": "",
          "type": "string"
        }
      ],
      "name": "patients",
      "outputs": [
        {
          "internalType": "string",
          "name": "patientId",
          "type": "string"
        },
        {
          "internalType": "string",
          "name": "name",
          "type": "string"
        },
        {
          "internalType": "uint256",
          "name": "dateOfBirth",
          "type": "uint256"
        },
        {
          "internalType": "string",
          "name": "bloodType",
          "type": "string"
        },
        {
          "internalType": "bool",
          "name": "isActive",
          "type": "bool"
        },
        {
          "internalType": "uint256",
          "name": "createdAt",
          "type": "uint256"
        },
        {
          "internalType": "address",
          "name": "authorizedBy",
          "type": "address"
        }
      ],
      "stateMutability": "view",
      "type": "function"
    },
    {
      "inputs": [
        {
          "internalType": "string",
          "name": "doctorId",
          "type": "string"
        },
        {
          "internalType": "string",
          "name": "name",
          "type": "string"
        },
        {
          "internalType": "string",
          "name": "specialization",
          "type": "string"
        },
        {
          "internalType": "string",
          "name": "licenseNumber",
          "type": "string"
        }
      ],
      "name": "registerDoctor",
      "outputs": [],
      "stateMutability": "nonpayable",
      "type": "function"
    },
    {
      "inputs": [
        {
          "internalType": "string",
          "name": "patientId",
          "type": "string"
        },
        {
          "internalType": "string",
          "name": "name",
          "type": "string"
        },
        {
          "internalType": "uint256",
          "name": "dateOfBirth",
          "type": "uint256"
        },
        {
          "internalType": "string",
          "name": "bloodType",
          "type": "string"
        }
      ],
      "name": "registerPatient",
      "outputs": [],
      "stateMutability": "nonpayable",
      "type": "function"
    },
    {
      "inputs": [
        {
          "internalType": "string",
          "name": "patientId",
          "type": "string"
        },
        {
          "internalType": "address",
          "name": "doctorAddress",
          "type": "address"
        }
      ],
      "name": "revokeAccess",
      "outputs": [],
      "stateMutability": "nonpayable",
      "type": "function"
    },
    {
      "inputs": [
        {
          "internalType": "string",
          "name": "patientId",
          "type": "string"
        },
        {
          "internalType": "address",
          "name": "doctorAddress",
          "type": "address"
        }
      ],
      "name": "revokeConsent",
      "outputs": [],
      "stateMutability": "nonpayable",
      "type": "function"
    }
  ],
  "bytecode": "0x6080604052348015600f57600080fd5b5061345f8061001f6000396000f3fe608060405234801561001057600080fd5b50600436106101215760003560e01c80639d31f2c3116100ad578063c8c18f3011610071578063c8c18f30146102d6578063dfe0b5fe146102f9578063ea9c18431461030c578063f37c215e1461031f578063ff898bd61461033257600080fd5b80639d31f2c31461023d578063a701e7c514610250578063a9583c2214610263578063b8a751df14610288578063c6009d84146102b057600080fd5b806366346e1e116100f457806366346e1e146101a657806368cdafb3146101c65780636edd4b63146101e65780636f12fc351461020a57806396b58fdf1461022a57600080fd5b80632d3975f01461012657806333a8587f1461015e5780633ca6cd76146101735780635cd40af514610186575b600080fd5b610149610134366004612841565b60046020526000908152604090205460ff1681565b60405190151581526020015b60405180910390f35b61017161016c3660046128ff565b610345565b005b6101496101813660046129bb565b610543565b610199610194366004612a08565b6105c9565b6040516101559190612a94565b6101b96101b43660046129bb565b610ac7565b6040516101559190612bc5565b6101d96101d4366004612a08565b610c10565b6040516101559190612c1f565b6101f96101f43660046129bb565b610f58565b604051610155959493929190612cb6565b61021d610218366004612841565b611037565b6040516101559190612cf8565b610171610238366004612d90565b6112fc565b61017161024b366004612e13565b611520565b61017161025e366004612f23565b611808565b610276610271366004612841565b611a40565b60405161015596959493929190612f7a565b61029b610296366004612fdd565b611c98565b60405161015599989796959493929190613021565b6102c36102be366004612a08565b612055565b60405161015597969594939291906130c7565b6101496102e4366004612841565b60056020526000908152604090205460ff1681565b6101716103073660046129bb565b612241565b61017161031a3660046129bb565b612314565b61017161032d3660046129bb565b612487565b6101716103403660046128ff565b6125b5565b600084511161039b5760405162461bcd60e51b815260206004820152601960248201527f446f63746f722049442063616e6e6f7420626520656d7074790000000000000060448201526064015b60405180910390fd5b60008351116103e35760405162461bcd60e51b81526020600482015260146024820152734e616d652063616e6e6f7420626520656d70747960601b6044820152606401610392565b60008151116104345760405162461bcd60e51b815260206004820152601e60248201527f4c6963656e7365206e756d6265722063616e6e6f7420626520656d70747900006044820152606401610392565b6040805160c081018252858152602080820186905281830185905260608201849052600160808301524260a08301523360009081526002909152919091208151819061048090826131b8565b506020820151600182019061049590826131b8565b50604082015160028201906104aa90826131b8565b50606082015160038201906104bf90826131b8565b5060808201516004808301805492151560ff1993841617905560a090930151600590920191909155336000818152602093909352604092839020805490921660011790915590517f1f5e33d2573da99a901bca6b2c06d5f12b75dfd179bcbbe46a5216cf8349ee6b916105359186904290613276565b60405180910390a150505050565b600060038360405161055591906132aa565b90815260408051602092819003830190206001600160a01b0385166000908152925290206004015460ff1680156105c257504260038460405161059891906132aa565b90815260408051602092819003830190206001600160a01b03861660009081529252902060030154115b9392505050565b6060816000816040516105dc91906132aa565b9081526040519081900360200190206004015460ff1661060e5760405162461bcd60e51b8152600401610392906132c6565b823360038260405161062091906132aa565b90815260408051602092819003830190206001600160a01b0384166000908152925290206004015460ff16801561068d57504260038360405161066391906132aa565b90815260408051602092819003830190206001600160a01b03851660009081529252902060030154115b6106a95760405162461bcd60e51b8152600401610392906132f6565b6001856040516106b991906132aa565b9081526020016040518091039020805480602002602001604051908101604052809291908181526020016000905b82821015610ab957838290600052602060002090600802016040518061012001604052908160008201805461071b9061312f565b80601f01602080910402602001604051908101604052809291908181526020018280546107479061312f565b80156107945780601f1061076957610100808354040283529160200191610794565b820191906000526020600020905b81548152906001019060200180831161077757829003601f168201915b505050505081526020016001820180546107ad9061312f565b80601f01602080910402602001604051908101604052809291908181526020018280546107d99061312f565b80156108265780601f106107fb57610100808354040283529160200191610826565b820191906000526020600020905b81548152906001019060200180831161080957829003601f168201915b5050505050815260200160028201805461083f9061312f565b80601f016020809104026020016040519081016040528092919081815260200182805461086b9061312f565b80156108b85780601f1061088d576101008083540402835291602001916108b8565b820191906000526020600020905b81548152906001019060200180831161089b57829003601f168201915b505050505081526020016003820180546108d19061312f565b80601f01602080910402602001604051908101604052809291908181526020018280546108fd9061312f565b801561094a5780601f1061091f5761010080835404028352916020019161094a565b820191906000526020600020905b81548152906001019060200180831161092d57829003601f168201915b505050505081526020016004820180546109639061312f565b80601f016020809104026020016040519081016040528092919081815260200182805461098f9061312f565b80156109dc5780601f106109b1576101008083540402835291602001916109dc565b820191906000526020600020905b8154815290600101906020018083116109bf57829003601f168201915b50505091835250506005820154602082015260068201546001600160a01b0381166040830152600160a01b900460ff1615156060820152600782018054608090920191610a289061312f565b80601f0160208091040260200160405190810160405280929190818152602001828054610a549061312f565b8015610aa15780601f10610a7657610100808354040283529160200191610aa1565b820191906000526020600020905b815481529060010190602001808311610a8457829003601f168201915b505050505081525050815260200190600101906106e7565b505050509350505050919050565b610b046040518060a001604052806060815260200160006001600160a01b0316815260200160008152602001600081526020016000151581525090565b600383604051610b1491906132aa565b9081526040805191829003602090810183206001600160a01b0386166000908152915281902060a08301909152805482908290610b509061312f565b80601f0160208091040260200160405190810160405280929190818152602001828054610b7c9061312f565b8015610bc95780601f10610b9e57610100808354040283529160200191610bc9565b820191906000526020600020905b815481529060010190602001808311610bac57829003601f168201915b505050918352505060018201546001600160a01b03166020820152600282015460408201526003820154606082015260049091015460ff1615156080909101529392505050565b610c5b6040518060e00160405280606081526020016060815260200160008152602001606081526020016000151581526020016000815260200160006001600160a01b031681525090565b81600081604051610c6c91906132aa565b9081526040519081900360200190206004015460ff16610c9e5760405162461bcd60e51b8152600401610392906132c6565b8233600382604051610cb091906132aa565b90815260408051602092819003830190206001600160a01b0384166000908152925290206004015460ff168015610d1d575042600383604051610cf391906132aa565b90815260408051602092819003830190206001600160a01b03851660009081529252902060030154115b610d395760405162461bcd60e51b8152600401610392906132f6565b600085604051610d4991906132aa565b90815260200160405180910390206040518060e0016040529081600082018054610d729061312f565b80601f0160208091040260200160405190810160405280929190818152602001828054610d9e9061312f565b8015610deb5780601f10610dc057610100808354040283529160200191610deb565b820191906000526020600020905b815481529060010190602001808311610dce57829003601f168201915b50505050508152602001600182018054610e049061312f565b80601f0160208091040260200160405190810160405280929190818152602001828054610e309061312f565b8015610e7d5780601f10610e5257610100808354040283529160200191610e7d565b820191906000526020600020905b815481529060010190602001808311610e6057829003601f168201915b5050505050815260200160028201548152602001600382018054610ea09061312f565b80601f0160208091040260200160405190810160405280929190818152602001828054610ecc9061312f565b8015610f195780601f10610eee57610100808354040283529160200191610f19565b820191906000526020600020905b815481529060010190602001808311610efc57829003601f168201915b5050509183525050600482015460ff1615156020820152600582015460408201526006909101546001600160a01b031660609091015295945050505050565b815160208184018101805160038252928201948201949094209190935290915260009081526040902080548190610f8e9061312f565b80601f0160208091040260200160405190810160405280929190818152602001828054610fba9061312f565b80156110075780601f10610fdc57610100808354040283529160200191611007565b820191906000526020600020905b815481529060010190602001808311610fea57829003601f168201915b5050505060018301546002840154600385015460049095015493946001600160a01b039092169390925060ff1685565b6110726040518060c0016040528060608152602001606081526020016060815260200160608152602001600015158152602001600081525090565b6001600160a01b03821660009081526002602052604090819020815160c081019092528054829082906110a49061312f565b80601f01602080910402602001604051908101604052809291908181526020018280546110d09061312f565b801561111d5780601f106110f25761010080835404028352916020019161111d565b820191906000526020600020905b81548152906001019060200180831161110057829003601f168201915b505050505081526020016001820180546111369061312f565b80601f01602080910402602001604051908101604052809291908181526020018280546111629061312f565b80156111af5780601f10611184576101008083540402835291602001916111af565b820191906000526020600020905b81548152906001019060200180831161119257829003601f168201915b505050505081526020016002820180546111c89061312f565b80601f01602080910402602001604051908101604052809291908181526020018280546111f49061312f565b80156112415780601f1061121657610100808354040283529160200191611241565b820191906000526020600020905b81548152906001019060200180831161122457829003601f168201915b5050505050815260200160038201805461125a9061312f565b80601f01602080910402602001604051908101604052809291908181526020018280546112869061312f565b80156112d35780601f106112a8576101008083540402835291602001916112d3565b820191906000526020600020905b8154815290600101906020018083116112b657829003601f168201915b5050509183525050600482015460ff161515602082015260059091015460409091015292915050565b3360009081526004602052604090205460ff1661132b5760405162461bcd60e51b815260040161039290613326565b600084511161137c5760405162461bcd60e51b815260206004820152601a60248201527f50617469656e742049442063616e6e6f7420626520656d7074790000000000006044820152606401610392565b60008351116113c45760405162461bcd60e51b81526020600482015260146024820152734e616d652063616e6e6f7420626520656d70747960601b6044820152606401610392565b6000821161140c5760405162461bcd60e51b8152602060048201526015602482015274092dcecc2d8d2c840c8c2e8ca40decc40c4d2e4e8d605b1b6044820152606401610392565b6040805160e0810182528581526020810185905280820184905260608101839052600160808201524260a08201523360c082015290516000906114509087906132aa565b9081526040519081900360200190208151819061146d90826131b8565b506020820151600182019061148290826131b8565b5060408201516002820155606082015160038201906114a190826131b8565b50608082015160048201805460ff191691151591909117905560a0820151600582015560c090910151600690910180546001600160a01b0319166001600160a01b039092169190911790556040517fa24cefff25871898471f82c74d1c07d85a48e345989c5431508a3ec08ea5e5cc9061053590869086904290613375565b3360009081526004602052604090205460ff1661154f5760405162461bcd60e51b815260040161039290613326565b8560008160405161156091906132aa565b9081526040519081900360200190206004015460ff166115925760405162461bcd60e51b8152600401610392906132c6565b86336003826040516115a491906132aa565b90815260408051602092819003830190206001600160a01b0384166000908152925290206004015460ff1680156116115750426003836040516115e791906132aa565b90815260408051602092819003830190206001600160a01b03851660009081529252902060030154115b61162d5760405162461bcd60e51b8152600401610392906132f6565b600088511161167a5760405162461bcd60e51b81526020600482015260196024820152785265636f72642049442063616e6e6f7420626520656d70747960381b6044820152606401610392565b60006040518061012001604052808a81526020018b8152602001898152602001888152602001878152602001428152602001336001600160a01b0316815260200160011515815260200186815250905060018a6040516116da91906132aa565b90815260405160209181900382019020805460018101825560009182529190208251839260080290910190819061171190826131b8565b506020820151600182019061172690826131b8565b506040820151600282019061173b90826131b8565b506060820151600382019061175090826131b8565b506080820151600482019061176590826131b8565b5060a0820151600582015560c082015160068201805460e08501511515600160a01b026001600160a81b03199091166001600160a01b039093169290921791909117905561010082015160078201906117be90826131b8565b5050507f2fda3ce68e3316f21c26863e3b64c0bca4dfc4d6cb5777ef08d41c56482e22218a8a426040516117f493929190613375565b60405180910390a150505050505050505050565b3360009081526005602052604090205460ff166118375760405162461bcd60e51b8152600401610392906133ab565b8260008160405161184891906132aa565b9081526040519081900360200190206004015460ff1661187a5760405162461bcd60e51b8152600401610392906132c6565b6001600160a01b038316600090815260026020526040902060040154839060ff166118df5760405162461bcd60e51b8152602060048201526015602482015274111bd8dd1bdc881b9bdd081c9959da5cdd195c9959605a1b6044820152606401610392565b4283116119385760405162461bcd60e51b815260206004820152602160248201527f4578706972792064617465206d75737420626520696e207468652066757475726044820152606560f81b6064820152608401610392565b6040805160a0810182528681526001600160a01b03861660208201524281830152606081018590526001608082015290516003906119779088906132aa565b90815260408051602092819003830190206001600160a01b038816600090815292529020815181906119a990826131b8565b5060208201516001820180546001600160a01b0319166001600160a01b039092169190911790556040808301516002830155606083015160038301556080909201516004909101805460ff1916911515919091179055517f63eddbdc6f0274f415701e34a9fea3c7f9793576f1fa525f92166b825cde382490611a31908790879042906133fb565b60405180910390a15050505050565b600260205260009081526040902080548190611a5b9061312f565b80601f0160208091040260200160405190810160405280929190818152602001828054611a879061312f565b8015611ad45780601f10611aa957610100808354040283529160200191611ad4565b820191906000526020600020905b815481529060010190602001808311611ab757829003601f168201915b505050505090806001018054611ae99061312f565b80601f0160208091040260200160405190810160405280929190818152602001828054611b159061312f565b8015611b625780601f10611b3757610100808354040283529160200191611b62565b820191906000526020600020905b815481529060010190602001808311611b4557829003601f168201915b505050505090806002018054611b779061312f565b80601f0160208091040260200160405190810160405280929190818152602001828054611ba39061312f565b8015611bf05780601f10611bc557610100808354040283529160200191611bf0565b820191906000526020600020905b815481529060010190602001808311611bd357829003601f168201915b505050505090806003018054611c059061312f565b80601f0160208091040260200160405190810160405280929190818152602001828054611c319061312f565b8015611c7e5780601f10611c5357610100808354040283529160200191611c7e565b820191906000526020600020905b815481529060010190602001808311611c6157829003601f168201915b505050506004830154600590930154919260ff1691905086565b81516020818401810180516001825292820191850191909120919052805482908110611cc357600080fd5b906000526020600020906008020160009150915050806000018054611ce79061312f565b80601f0160208091040260200160405190810160405280929190818152602001828054611d139061312f565b8015611d605780601f10611d3557610100808354040283529160200191611d60565b820191906000526020600020905b815481529060010190602001808311611d4357829003601f168201915b505050505090806001018054611d759061312f565b80601f0160208091040260200160405190810160405280929190818152602001828054611da19061312f565b8015611dee5780601f10611dc357610100808354040283529160200191611dee565b820191906000526020600020905b815481529060010190602001808311611dd157829003601f168201915b505050505090806002018054611e039061312f565b80601f0160208091040260200160405190810160405280929190818152602001828054611e2f9061312f565b8015611e7c5780601f10611e5157610100808354040283529160200191611e7c565b820191906000526020600020905b815481529060010190602001808311611e5f57829003601f168201915b505050505090806003018054611e919061312f565b80601f0160208091040260200160405190810160405280929190818152602001828054611ebd9061312f565b8015611f0a5780601f10611edf57610100808354040283529160200191611f0a565b820191906000526020600020905b815481529060010190602001808311611eed57829003601f168201915b505050505090806004018054611f1f9061312f565b80601f0160208091040260200160405190810160405280929190818152602001828054611f4b9061312f565b8015611f985780601f10611f6d57610100808354040283529160200191611f98565b820191906000526020600020905b815481529060010190602001808311611f7b57829003601f168201915b5050505060058301546006840154600785018054949592946001600160a01b0383169450600160a01b90920460ff169291611fd29061312f565b80601f0160208091040260200160405190810160405280929190818152602001828054611ffe9061312f565b801561204b5780601f106120205761010080835404028352916020019161204b565b820191906000526020600020905b81548152906001019060200180831161202e57829003601f168201915b5050505050905089565b805160208183018101805160008252928201919093012091528054819061207b9061312f565b80601f01602080910402602001604051908101604052809291908181526020018280546120a79061312f565b80156120f45780601f106120c9576101008083540402835291602001916120f4565b820191906000526020600020905b8154815290600101906020018083116120d757829003601f168201915b5050505050908060010180546121099061312f565b80601f01602080910402602001604051908101604052809291908181526020018280546121359061312f565b80156121825780601f1061215757610100808354040283529160200191612182565b820191906000526020600020905b81548152906001019060200180831161216557829003601f168201915b50505050509080600201549080600301805461219d9061312f565b80601f01602080910402602001604051908101604052809291908181526020018280546121c99061312f565b80156122165780601f106121eb57610100808354040283529160200191612216565b820191906000526020600020905b8154815290600101906020018083116121f957829003601f168201915b5050505060048301546005840154600690940154929360ff909116929091506001600160a01b031687565b3360009081526004602052604090205460ff166122705760405162461bcd60e51b815260040161039290613326565b8160008160405161228191906132aa565b9081526040519081900360200190206004015460ff166122b35760405162461bcd60e51b8152600401610392906132c6565b6001600160a01b03821660009081526004602052604090819020805460ff19169055517f9958d95f230661239ec62ae52cdf0c7ab4747242e94b761c629b2c3d766ee81e9061230790849086904290613276565b60405180910390a1505050565b3360009081526005602052604090205460ff166123435760405162461bcd60e51b8152600401610392906133ab565b8160008160405161235491906132aa565b9081526040519081900360200190206004015460ff166123865760405162461bcd60e51b8152600401610392906132c6565b60038360405161239691906132aa565b90815260408051602092819003830190206001600160a01b0385166000908152925290206004015460ff1661240d5760405162461bcd60e51b815260206004820152601760248201527f4e6f2061637469766520636f6e73656e7420666f756e640000000000000000006044820152606401610392565b600060038460405161241f91906132aa565b90815260408051602092819003830181206001600160a01b038716600090815293529120600401805460ff1916921515929092179091557fce3667cd24c48ecbb938683548eea07ec77329c939180caadf81fc64ec24424090612307908590859042906133fb565b3360009081526004602052604090205460ff166124b65760405162461bcd60e51b815260040161039290613326565b816000816040516124c791906132aa565b9081526040519081900360200190206004015460ff166124f95760405162461bcd60e51b8152600401610392906132c6565b6001600160a01b038216600090815260026020526040902060040154829060ff1661255e5760405162461bcd60e51b8152602060048201526015602482015274111bd8dd1bdc881b9bdd081c9959da5cdd195c9959605a1b6044820152606401610392565b6001600160a01b03831660009081526004602052604090819020805460ff19166001179055517f3b0b21116afe63a37708e6241426883ad2a446b946bde89994a5293702a60a889061053590859087904290613276565b3360009081526004602052604090205460ff166125e45760405162461bcd60e51b815260040161039290613326565b836000816040516125f591906132aa565b9081526040519081900360200190206004015460ff166126275760405162461bcd60e51b8152600401610392906132c6565b60008451116126745760405162461bcd60e51b81526020600482015260196024820152785265636f72642049442063616e6e6f7420626520656d70747960381b6044820152606401610392565b6040805161012081018252858152602080820188905281830186905260608201859052825180840184526013815272115b595c99d95b98de481d1c99585d1b595b9d606a1b8183015260808301524260a08301523360c0830152600160e08301819052835191820184526000825261010083019190915291519091906126fb9088906132aa565b90815260405160209181900382019020805460018101825560009182529190208251839260080290910190819061273290826131b8565b506020820151600182019061274790826131b8565b506040820151600282019061275c90826131b8565b506060820151600382019061277190826131b8565b506080820151600482019061278690826131b8565b5060a0820151600582015560c082015160068201805460e08501511515600160a01b026001600160a81b03199091166001600160a01b039093169290921791909117905561010082015160078201906127df90826131b8565b5050507f2fda3ce68e3316f21c26863e3b64c0bca4dfc4d6cb5777ef08d41c56482e222186864260405161281593929190613375565b60405180910390a1505050505050565b80356001600160a01b038116811461283c57600080fd5b919050565b60006020828403121561285357600080fd5b6105c282612825565b634e487b7160e01b600052604160045260246000fd5b600082601f83011261288357600080fd5b81356001600160401b0381111561289c5761289c61285c565b604051601f8201601f19908116603f011681016001600160401b03811182821017156128ca576128ca61285c565b6040528181528382016020018510156128e257600080fd5b816020850160208301376000918101602001919091529392505050565b6000806000806080858703121561291557600080fd5b84356001600160401b0381111561292b57600080fd5b61293787828801612872565b94505060208501356001600160401b0381111561295357600080fd5b61295f87828801612872565b93505060408501356001600160401b0381111561297b57600080fd5b61298787828801612872565b92505060608501356001600160401b038111156129a357600080fd5b6129af87828801612872565b91505092959194509250565b600080604083850312156129ce57600080fd5b82356001600160401b038111156129e457600080fd5b6129f085828601612872565b9250506129ff60208401612825565b90509250929050565b600060208284031215612a1a57600080fd5b81356001600160401b03811115612a3057600080fd5b612a3c84828501612872565b949350505050565b60005b83811015612a5f578181015183820152602001612a47565b50506000910152565b60008151808452612a80816020860160208601612a44565b601f01601f19169290920160200192915050565b6000602082016020835280845180835260408501915060408160051b86010192506020860160005b82811015612bb957603f19878603018452815180516101208752612ae4610120880182612a68565b905060208201518782036020890152612afd8282612a68565b91505060408201518782036040890152612b178282612a68565b91505060608201518782036060890152612b318282612a68565b91505060808201518782036080890152612b4b8282612a68565b91505060a082015160a088015260c0820151612b7260c08901826001600160a01b03169052565b5060e0820151612b8660e089018215159052565b506101008201519150868103610100880152612ba28183612a68565b965050506020938401939190910190600101612abc565b50929695505050505050565b602081526000825160a06020840152612be160c0840182612a68565b905060018060a01b03602085015116604084015260408401516060840152606084015160808401526080840151151560a08401528091505092915050565b602081526000825160e06020840152612c3c610100840182612a68565b90506020840151601f19848303016040850152612c598282612a68565b915050604084015160608401526060840151601f19848303016080850152612c818282612a68565b9150506080840151151560a084015260a084015160c084015260018060a01b0360c08501511660e08401528091505092915050565b60a081526000612cc960a0830188612a68565b6001600160a01b0396909616602083015250604081019390935260608301919091521515608090910152919050565b602081526000825160c06020840152612d1460e0840182612a68565b90506020840151601f19848303016040850152612d318282612a68565b9150506040840151601f19848303016060850152612d4f8282612a68565b9150506060840151601f19848303016080850152612d6d8282612a68565b9150506080840151151560a084015260a084015160c08401528091505092915050565b60008060008060808587031215612da657600080fd5b84356001600160401b03811115612dbc57600080fd5b612dc887828801612872565b94505060208501356001600160401b03811115612de457600080fd5b612df087828801612872565b9350506040850135915060608501356001600160401b038111156129a357600080fd5b60008060008060008060c08789031215612e2c57600080fd5b86356001600160401b03811115612e4257600080fd5b612e4e89828a01612872565b96505060208701356001600160401b03811115612e6a57600080fd5b612e7689828a01612872565b95505060408701356001600160401b03811115612e9257600080fd5b612e9e89828a01612872565b94505060608701356001600160401b03811115612eba57600080fd5b612ec689828a01612872565b93505060808701356001600160401b03811115612ee257600080fd5b612eee89828a01612872565b92505060a08701356001600160401b03811115612f0a57600080fd5b612f1689828a01612872565b9150509295509295509295565b600080600060608486031215612f3857600080fd5b83356001600160401b03811115612f4e57600080fd5b612f5a86828701612872565b935050612f6960208501612825565b929592945050506040919091013590565b60c081526000612f8d60c0830189612a68565b8281036020840152612f9f8189612a68565b90508281036040840152612fb38188612a68565b90508281036060840152612fc78187612a68565b9415156080840152505060a00152949350505050565b60008060408385031215612ff057600080fd5b82356001600160401b0381111561300657600080fd5b61301285828601612872565b95602094909401359450505050565b6101208152600061303661012083018c612a68565b8281036020840152613048818c612a68565b9050828103604084015261305c818b612a68565b90508281036060840152613070818a612a68565b905082810360808401526130848189612a68565b60a084018890526001600160a01b03871660c085015285151560e085015283810361010085015290506130b78185612a68565b9c9b505050505050505050505050565b60e0815260006130da60e083018a612a68565b82810360208401526130ec818a612a68565b905087604084015282810360608401526131068188612a68565b9515156080840152505060a08101929092526001600160a01b031660c090910152949350505050565b600181811c9082168061314357607f821691505b60208210810361316357634e487b7160e01b600052602260045260246000fd5b50919050565b601f8211156131b357806000526020600020601f840160051c810160208510156131905750805b601f840160051c820191505b818110156131b0576000815560010161319c565b50505b505050565b81516001600160401b038111156131d1576131d161285c565b6131e5816131df845461312f565b84613169565b6020601f82116001811461321957600083156132015750848201515b600019600385901b1c1916600184901b1784556131b0565b600084815260208120601f198516915b828110156132495787850151825560209485019460019092019101613229565b50848210156132675786840151600019600387901b60f8161c191681555b50505050600190811b01905550565b6001600160a01b038416815260606020820181905260009061329a90830185612a68565b9050826040830152949350505050565b600082516132bc818460208701612a44565b9190910192915050565b60208082526016908201527514185d1a595b9d08191bd95cc81b9bdd08195e1a5cdd60521b604082015260600190565b602080825260169082015275139bc81d985b1a590818dbdb9cd95b9d08199bdd5b9960521b604082015260600190565b6020808252602f908201527f4f6e6c7920617574686f72697a656420646f63746f72732063616e207065726660408201526e37b936903a3434b99030b1ba34b7b760891b606082015260800190565b6060815260006133886060830186612a68565b828103602084015261339a8186612a68565b915050826040830152949350505050565b60208082526030908201527f4f6e6c7920617574686f72697a65642070617469656e74732063616e2070657260408201526f3337b936903a3434b99030b1ba34b7b760811b606082015260800190565b60608152600061340e6060830186612a68565b6001600160a01b03949094166020830152506040015291905056fea26469706673582212205767193e6693014f49d6697a4e9d70d4c16e9f66b5395148efc3ff95a5c7d79764736f6c634300081c0033",
  "linkReferences": {},
  "deployedLinkReferences": {}
}